{
  "_format": "hh-sol-artifact-1",
  "contractName": "FlashLoanLeverage",
  "sourceName": "contracts/FlashLoanLeverage.sol",
  "abi": [
    {
      "inputs": [
        {
          "internalType": "address",
          "name": "pool",
          "type": "address"
        }
      ],
      "stateMutability": "nonpayable",
      "type": "constructor"
    },
    {
      "inputs": [],
      "name": "POOL",
      "outputs": [
        {
          "internalType": "contract IPool",
          "name": "",
          "type": "address"
        }
      ],
      "stateMutability": "view",
      "type": "function"
    },
    {
      "inputs": [
        {
          "internalType": "address",
          "name": "token",
          "type": "address"
        },
        {
          "internalType": "address",
          "name": "user",
          "type": "address"
        },
        {
          "internalType": "uint256",
          "name": "amount",
          "type": "uint256"
        }
      ],
      "name": "borrow",
      "outputs": [],
      "stateMutability": "nonpayable",
      "type": "function"
    },
    {
      "inputs": [
        {
          "internalType": "address",
          "name": "asset",
          "type": "address"
        },
        {
          "internalType": "uint256",
          "name": "amount",
          "type": "uint256"
        },
        {
          "internalType": "uint256",
          "name": "premium",
          "type": "uint256"
        },
        {
          "internalType": "address",
          "name": "initiator",
          "type": "address"
        },
        {
          "internalType": "bytes",
          "name": "params",
          "type": "bytes"
        }
      ],
      "name": "executeOperation",
      "outputs": [
        {
          "internalType": "bool",
          "name": "",
          "type": "bool"
        }
      ],
      "stateMutability": "nonpayable",
      "type": "function"
    },
    {
      "inputs": [
        {
          "internalType": "address",
          "name": "user",
          "type": "address"
        },
        {
          "internalType": "address",
          "name": "token",
          "type": "address"
        },
        {
          "internalType": "uint256",
          "name": "lendAmount",
          "type": "uint256"
        },
        {
          "internalType": "uint256",
          "name": "borrowAmount",
          "type": "uint256"
        }
      ],
      "name": "flashLoanLeverage",
      "outputs": [],
      "stateMutability": "nonpayable",
      "type": "function"
    },
    {
      "inputs": [
        {
          "internalType": "address",
          "name": "token",
          "type": "address"
        },
        {
          "internalType": "address",
          "name": "user",
          "type": "address"
        },
        {
          "internalType": "uint256",
          "name": "amount",
          "type": "uint256"
        }
      ],
      "name": "lend",
      "outputs": [],
      "stateMutability": "nonpayable",
      "type": "function"
    }
  ],
  "bytecode": "0x608060405234801561001057600080fd5b50604051610da0380380610da0833981810160405281019061003291906100db565b806000806101000a81548173ffffffffffffffffffffffffffffffffffffffff021916908373ffffffffffffffffffffffffffffffffffffffff16021790555050610108565b600080fd5b600073ffffffffffffffffffffffffffffffffffffffff82169050919050565b60006100a88261007d565b9050919050565b6100b88161009d565b81146100c357600080fd5b50565b6000815190506100d5816100af565b92915050565b6000602082840312156100f1576100f0610078565b5b60006100ff848285016100c6565b91505092915050565b610c89806101176000396000f3fe608060405234801561001057600080fd5b50600436106100575760003560e01c806305ec2d4d1461005c5780631b11d0ff146100785780635224372c146100a85780637535d246146100c4578063b4495127146100e2575b600080fd5b610076600480360381019061007191906105e9565b6100fe565b005b610092600480360381019061008d91906106a1565b610195565b60405161009f9190610756565b60405180910390f35b6100c260048036038101906100bd91906105e9565b6103c5565b005b6100cc61045f565b6040516100d991906107d0565b60405180910390f35b6100fc60048036038101906100f791906107eb565b610483565b005b60008054906101000a900473ffffffffffffffffffffffffffffffffffffffff1673ffffffffffffffffffffffffffffffffffffffff1663617ba03784838560006040518563ffffffff1660e01b815260040161015e94939291906108b9565b600060405180830381600087803b15801561017857600080fd5b505af115801561018c573d6000803e3d6000fd5b50505050505050565b600080600084848101906101a9919061093c565b9150915060008990506000888a6101c091906109ab565b90508173ffffffffffffffffffffffffffffffffffffffff1663095ea7b360008054906101000a900473ffffffffffffffffffffffffffffffffffffffff16836040518363ffffffff1660e01b815260040161021d9291906109df565b6020604051808303816000875af115801561023c573d6000803e3d6000fd5b505050506040513d601f19601f820116820180604052508101906102609190610a34565b5061026c8b85836100fe565b6102828b858b8661027d91906109ab565b6103c5565b8173ffffffffffffffffffffffffffffffffffffffff166323b872dd8530846040518463ffffffff1660e01b81526004016102bf93929190610a61565b6020604051808303816000875af11580156102de573d6000803e3d6000fd5b505050506040513d601f19601f820116820180604052508101906103029190610a34565b506000898b6103119190610a98565b90508273ffffffffffffffffffffffffffffffffffffffff1663095ea7b360008054906101000a900473ffffffffffffffffffffffffffffffffffffffff16836040518363ffffffff1660e01b815260040161036e9291906109df565b6020604051808303816000875af115801561038d573d6000803e3d6000fd5b505050506040513d601f19601f820116820180604052508101906103b19190610a34565b506001955050505050509695505050505050565b60008054906101000a900473ffffffffffffffffffffffffffffffffffffffff1673ffffffffffffffffffffffffffffffffffffffff1663a415bcad848360026000876040518663ffffffff1660e01b8152600401610428959493929190610b07565b600060405180830381600087803b15801561044257600080fd5b505af1158015610456573d6000803e3d6000fd5b50505050505050565b60008054906101000a900473ffffffffffffffffffffffffffffffffffffffff1681565b60003090506000858360405160200161049d9291906109df565b60405160208183030381529060405290506000808054906101000a900473ffffffffffffffffffffffffffffffffffffffff1673ffffffffffffffffffffffffffffffffffffffff166342b0b77c84888886866040518663ffffffff1660e01b8152600401610510959493929190610bf9565b600060405180830381600087803b15801561052a57600080fd5b505af115801561053e573d6000803e3d6000fd5b5050505050505050505050565b600080fd5b600080fd5b600073ffffffffffffffffffffffffffffffffffffffff82169050919050565b600061058082610555565b9050919050565b61059081610575565b811461059b57600080fd5b50565b6000813590506105ad81610587565b92915050565b6000819050919050565b6105c6816105b3565b81146105d157600080fd5b50565b6000813590506105e3816105bd565b92915050565b6000806000606084860312156106025761060161054b565b5b60006106108682870161059e565b93505060206106218682870161059e565b9250506040610632868287016105d4565b9150509250925092565b600080fd5b600080fd5b600080fd5b60008083601f8401126106615761066061063c565b5b8235905067ffffffffffffffff81111561067e5761067d610641565b5b60208301915083600182028301111561069a57610699610646565b5b9250929050565b60008060008060008060a087890312156106be576106bd61054b565b5b60006106cc89828a0161059e565b96505060206106dd89828a016105d4565b95505060406106ee89828a016105d4565b94505060606106ff89828a0161059e565b935050608087013567ffffffffffffffff8111156107205761071f610550565b5b61072c89828a0161064b565b92509250509295509295509295565b60008115159050919050565b6107508161073b565b82525050565b600060208201905061076b6000830184610747565b92915050565b6000819050919050565b600061079661079161078c84610555565b610771565b610555565b9050919050565b60006107a88261077b565b9050919050565b60006107ba8261079d565b9050919050565b6107ca816107af565b82525050565b60006020820190506107e560008301846107c1565b92915050565b600080600080608085870312156108055761080461054b565b5b60006108138782880161059e565b94505060206108248782880161059e565b9350506040610835878288016105d4565b9250506060610846878288016105d4565b91505092959194509250565b61085b81610575565b82525050565b61086a816105b3565b82525050565b6000819050919050565b600061ffff82169050919050565b60006108a361089e61089984610870565b610771565b61087a565b9050919050565b6108b381610888565b82525050565b60006080820190506108ce6000830187610852565b6108db6020830186610861565b6108e86040830185610852565b6108f560608301846108aa565b95945050505050565b600061090982610555565b9050919050565b610919816108fe565b811461092457600080fd5b50565b60008135905061093681610910565b92915050565b600080604083850312156109535761095261054b565b5b600061096185828601610927565b9250506020610972858286016105d4565b9150509250929050565b7f4e487b7100000000000000000000000000000000000000000000000000000000600052601160045260246000fd5b60006109b6826105b3565b91506109c1836105b3565b92508282039050818111156109d9576109d861097c565b5b92915050565b60006040820190506109f46000830185610852565b610a016020830184610861565b9392505050565b610a118161073b565b8114610a1c57600080fd5b50565b600081519050610a2e81610a08565b92915050565b600060208284031215610a4a57610a4961054b565b5b6000610a5884828501610a1f565b91505092915050565b6000606082019050610a766000830186610852565b610a836020830185610852565b610a906040830184610861565b949350505050565b6000610aa3826105b3565b9150610aae836105b3565b9250828201905080821115610ac657610ac561097c565b5b92915050565b6000819050919050565b6000610af1610aec610ae784610acc565b610771565b6105b3565b9050919050565b610b0181610ad6565b82525050565b600060a082019050610b1c6000830188610852565b610b296020830187610861565b610b366040830186610af8565b610b4360608301856108aa565b610b506080830184610852565b9695505050505050565b600081519050919050565b600082825260208201905092915050565b60005b83811015610b94578082015181840152602081019050610b79565b60008484015250505050565b6000601f19601f8301169050919050565b6000610bbc82610b5a565b610bc68185610b65565b9350610bd6818560208601610b76565b610bdf81610ba0565b840191505092915050565b610bf38161087a565b82525050565b600060a082019050610c0e6000830188610852565b610c1b6020830187610852565b610c286040830186610861565b8181036060830152610c3a8185610bb1565b9050610c496080830184610bea565b969550505050505056fea26469706673582212204aeed8b5a81d47c22c65a5ebd070e81391d0b9d3b63fa71300d30d55c0c3210a64736f6c63430008110033",
  "linkReferences": {},
  "deployedLinkReferences": {}
}