{
  "_format": "hh-sol-artifact-1",
  "contractName": "FlashLoanExit",
  "sourceName": "contracts/FlashLoanExit.sol",
  "abi": [
    {
      "inputs": [
        {
          "internalType": "address",
          "name": "pool",
          "type": "address"
        }
      ],
      "stateMutability": "nonpayable",
      "type": "constructor"
    },
    {
      "inputs": [],
      "name": "POOL",
      "outputs": [
        {
          "internalType": "contract IPool",
          "name": "",
          "type": "address"
        }
      ],
      "stateMutability": "view",
      "type": "function"
    },
    {
      "inputs": [
        {
          "internalType": "address",
          "name": "asset",
          "type": "address"
        },
        {
          "internalType": "uint256",
          "name": "amount",
          "type": "uint256"
        },
        {
          "internalType": "uint256",
          "name": "premium",
          "type": "uint256"
        },
        {
          "internalType": "address",
          "name": "initiator",
          "type": "address"
        },
        {
          "internalType": "bytes",
          "name": "params",
          "type": "bytes"
        }
      ],
      "name": "executeOperation",
      "outputs": [
        {
          "internalType": "bool",
          "name": "",
          "type": "bool"
        }
      ],
      "stateMutability": "nonpayable",
      "type": "function"
    },
    {
      "inputs": [
        {
          "internalType": "address",
          "name": "user",
          "type": "address"
        },
        {
          "internalType": "address",
          "name": "token",
          "type": "address"
        },
        {
          "internalType": "address",
          "name": "aToken",
          "type": "address"
        },
        {
          "internalType": "uint256",
          "name": "amount",
          "type": "uint256"
        }
      ],
      "name": "exitFlashLoan",
      "outputs": [],
      "stateMutability": "nonpayable",
      "type": "function"
    },
    {
      "inputs": [
        {
          "internalType": "address",
          "name": "token",
          "type": "address"
        },
        {
          "internalType": "address",
          "name": "user",
          "type": "address"
        },
        {
          "internalType": "uint256",
          "name": "amount",
          "type": "uint256"
        }
      ],
      "name": "repay",
      "outputs": [],
      "stateMutability": "nonpayable",
      "type": "function"
    },
    {
      "inputs": [
        {
          "internalType": "address",
          "name": "token",
          "type": "address"
        },
        {
          "internalType": "address",
          "name": "user",
          "type": "address"
        },
        {
          "internalType": "uint256",
          "name": "amount",
          "type": "uint256"
        }
      ],
      "name": "withdraw",
      "outputs": [],
      "stateMutability": "nonpayable",
      "type": "function"
    }
  ],
  "bytecode": "0x608060405234801561001057600080fd5b50604051610d9e380380610d9e833981810160405281019061003291906100db565b806000806101000a81548173ffffffffffffffffffffffffffffffffffffffff021916908373ffffffffffffffffffffffffffffffffffffffff16021790555050610108565b600080fd5b600073ffffffffffffffffffffffffffffffffffffffff82169050919050565b60006100a88261007d565b9050919050565b6100b88161009d565b81146100c357600080fd5b50565b6000815190506100d5816100af565b92915050565b6000602082840312156100f1576100f0610078565b5b60006100ff848285016100c6565b91505092915050565b610c87806101176000396000f3fe608060405234801561001057600080fd5b50600436106100575760003560e01c806307c4db9c1461005c5780631b11d0ff146100785780631da649cf146100a85780637535d246146100c4578063d9caed12146100e2575b600080fd5b61007660048036038101906100719190610607565b6100fe565b005b610092600480360381019061008d91906106d3565b6101c6565b60405161009f9190610788565b60405180910390f35b6100c260048036038101906100bd91906107a3565b6103f6565b005b6100cc61049f565b6040516100d99190610855565b60405180910390f35b6100fc60048036038101906100f791906107a3565b6104c3565b005b60003090506000858460405160200161011892919061087f565b60405160208183030381529060405290506000808054906101000a900473ffffffffffffffffffffffffffffffffffffffff1673ffffffffffffffffffffffffffffffffffffffff166342b0b77c84888786866040518663ffffffff1660e01b815260040161018b959493929190610964565b600060405180830381600087803b1580156101a557600080fd5b505af11580156101b9573d6000803e3d6000fd5b5050505050505050505050565b600080600084848101906101da91906109fc565b91509150600089905060008290508173ffffffffffffffffffffffffffffffffffffffff1663095ea7b360008054906101000a900473ffffffffffffffffffffffffffffffffffffffff168c6040518363ffffffff1660e01b8152600401610243929190610a3c565b6020604051808303816000875af1158015610262573d6000803e3d6000fd5b505050506040513d601f19601f820116820180604052508101906102869190610a91565b506102928b858c6103f6565b8073ffffffffffffffffffffffffffffffffffffffff166323b872dd85308c8e6102bc9190610aed565b6040518463ffffffff1660e01b81526004016102da93929190610b21565b6020604051808303816000875af11580156102f9573d6000803e3d6000fd5b505050506040513d601f19601f8201168201806040525081019061031d9190610a91565b506103348b308b8d61032f9190610aed565b6104c3565b6000898b6103429190610aed565b90508273ffffffffffffffffffffffffffffffffffffffff1663095ea7b360008054906101000a900473ffffffffffffffffffffffffffffffffffffffff16836040518363ffffffff1660e01b815260040161039f929190610a3c565b6020604051808303816000875af11580156103be573d6000803e3d6000fd5b505050506040513d601f19601f820116820180604052508101906103e29190610a91565b506001955050505050509695505050505050565b60008054906101000a900473ffffffffffffffffffffffffffffffffffffffff1673ffffffffffffffffffffffffffffffffffffffff1663573ade8184836002866040518563ffffffff1660e01b81526004016104569493929190610b93565b6020604051808303816000875af1158015610475573d6000803e3d6000fd5b505050506040513d601f19601f820116820180604052508101906104999190610bed565b50505050565b60008054906101000a900473ffffffffffffffffffffffffffffffffffffffff1681565b60008054906101000a900473ffffffffffffffffffffffffffffffffffffffff1673ffffffffffffffffffffffffffffffffffffffff166369328dec8483856040518463ffffffff1660e01b815260040161052093929190610c1a565b6020604051808303816000875af115801561053f573d6000803e3d6000fd5b505050506040513d601f19601f820116820180604052508101906105639190610bed565b50505050565b600080fd5b600080fd5b600073ffffffffffffffffffffffffffffffffffffffff82169050919050565b600061059e82610573565b9050919050565b6105ae81610593565b81146105b957600080fd5b50565b6000813590506105cb816105a5565b92915050565b6000819050919050565b6105e4816105d1565b81146105ef57600080fd5b50565b600081359050610601816105db565b92915050565b6000806000806080858703121561062157610620610569565b5b600061062f878288016105bc565b9450506020610640878288016105bc565b9350506040610651878288016105bc565b9250506060610662878288016105f2565b91505092959194509250565b600080fd5b600080fd5b600080fd5b60008083601f8401126106935761069261066e565b5b8235905067ffffffffffffffff8111156106b0576106af610673565b5b6020830191508360018202830111156106cc576106cb610678565b5b9250929050565b60008060008060008060a087890312156106f0576106ef610569565b5b60006106fe89828a016105bc565b965050602061070f89828a016105f2565b955050604061072089828a016105f2565b945050606061073189828a016105bc565b935050608087013567ffffffffffffffff8111156107525761075161056e565b5b61075e89828a0161067d565b92509250509295509295509295565b60008115159050919050565b6107828161076d565b82525050565b600060208201905061079d6000830184610779565b92915050565b6000806000606084860312156107bc576107bb610569565b5b60006107ca868287016105bc565b93505060206107db868287016105bc565b92505060406107ec868287016105f2565b9150509250925092565b6000819050919050565b600061081b61081661081184610573565b6107f6565b610573565b9050919050565b600061082d82610800565b9050919050565b600061083f82610822565b9050919050565b61084f81610834565b82525050565b600060208201905061086a6000830184610846565b92915050565b61087981610593565b82525050565b60006040820190506108946000830185610870565b6108a16020830184610870565b9392505050565b6108b1816105d1565b82525050565b600081519050919050565b600082825260208201905092915050565b60005b838110156108f15780820151818401526020810190506108d6565b60008484015250505050565b6000601f19601f8301169050919050565b6000610919826108b7565b61092381856108c2565b93506109338185602086016108d3565b61093c816108fd565b840191505092915050565b600061ffff82169050919050565b61095e81610947565b82525050565b600060a0820190506109796000830188610870565b6109866020830187610870565b61099360408301866108a8565b81810360608301526109a5818561090e565b90506109b46080830184610955565b9695505050505050565b60006109c982610573565b9050919050565b6109d9816109be565b81146109e457600080fd5b50565b6000813590506109f6816109d0565b92915050565b60008060408385031215610a1357610a12610569565b5b6000610a21858286016109e7565b9250506020610a32858286016109e7565b9150509250929050565b6000604082019050610a516000830185610870565b610a5e60208301846108a8565b9392505050565b610a6e8161076d565b8114610a7957600080fd5b50565b600081519050610a8b81610a65565b92915050565b600060208284031215610aa757610aa6610569565b5b6000610ab584828501610a7c565b91505092915050565b7f4e487b7100000000000000000000000000000000000000000000000000000000600052601160045260246000fd5b6000610af8826105d1565b9150610b03836105d1565b9250828201905080821115610b1b57610b1a610abe565b5b92915050565b6000606082019050610b366000830186610870565b610b436020830185610870565b610b5060408301846108a8565b949350505050565b6000819050919050565b6000610b7d610b78610b7384610b58565b6107f6565b6105d1565b9050919050565b610b8d81610b62565b82525050565b6000608082019050610ba86000830187610870565b610bb560208301866108a8565b610bc26040830185610b84565b610bcf6060830184610870565b95945050505050565b600081519050610be7816105db565b92915050565b600060208284031215610c0357610c02610569565b5b6000610c1184828501610bd8565b91505092915050565b6000606082019050610c2f6000830186610870565b610c3c60208301856108a8565b610c496040830184610870565b94935050505056fea2646970667358221220dc05c62b2e71e7151106634371a05019a3d73cd17c27765df1797e571e3c9f8c64736f6c63430008110033",
  "linkReferences": {},
  "deployedLinkReferences": {}
}